:100000000C945D000C9485000C9485000C94850084
:100010000C9485000C9485000C9485000C9485004C
:100020000C9485000C9485000C9485000C9485003C
:100030000C9485000C9485000C9485000C9485002C
:100040000C94B9030C9485000C9487030C94610301
:100050000C9485000C9485000C9485000C9485000C
:100060000C9485000C94850000000008000201003B
:100070000003040700000000000000000000000072
:10008000250028002B0000000000240027002A0083
:10009000040404040404040402020202020203032E
:1000A0000303030301020408102040800102040836
:1000B0001020010204081020030411241FBECFEFFA
:1000C000D8E0DEBFCDBF22E0ACE6B1E001C01D92BA
:1000D000A636B207E1F711E0A0E0B1E0E0EAF2E114
:1000E00002C005900D92AC36B107D9F710E0CDE50E
:1000F000D0E004C02197FE010E943C07CC35D10717
:10010000C9F70E9442040C944E090C940000EDE7DC
:10011000F1E0A089B18982E08C93A485B5851C9219
:10012000A685B7858FEC8C93108EA489B58986E05F
:100130008C93A289B3898C9180618C93A289B389B5
:100140008C9188608C93A289B3898C9180688C9300
:100150000288F389E02D80818F7D8083089590E06F
:10016000FC01EC55FF4F2491FC01E057FF4F8491B7
:10017000882399F090E0880F991FFC01EA57FF4F00
:10018000A591B491FC01E458FF4F859194918FB7EC
:10019000F894EC91E22BEC938FBF0895CF92DF920D
:1001A000EF92FF920F931F93CF93DF936C017A012D
:1001B0008B01C0E0D0E0CE15DF0589F0D8016D914C
:1001C0008D01D601ED91FC910190F081E02DC601E9
:1001D0000995892B11F47E0102C02196ECCFC7014D
:1001E000DF91CF911F910F91FF90EF90DF90CF9013
:1001F0000895089580E090E00895FC01538D448DAA
:10020000252F30E0842F90E0821B930B541710F0C1
:10021000CF96089501970895FC01918D828D9817CE
:1002200061F0828DDF01A80FB11D5D968C91928DDA
:100230009F5F9F73928F90E008958FEF9FEF0895D7
:10024000FC01918D828D981731F0828DE80FF11DA0
:10025000858D90E008958FEF9FEF0895FC01918DBB
:10026000228D892F90E0805C9F4F821B91098F73B4
:10027000992708958DE791E00E942E0121E0892BB6
:1002800009F420E0822F0895FC01848DDF01A80F7E
:10029000B11DA35ABF4F2C91848D90E001968F73AE
:1002A0009927848FA689B7892C93A089B1898C91CD
:1002B00080648C93938D848D981306C00288F38993
:1002C000E02D80818F7D80830895EF92FF920F93C0
:1002D0001F93CF93DF93EC0181E0888F9B8D8C8DF2
:1002E000981305C0E889F989808185FD24C0F62E20
:1002F0000B8D10E00F5F1F4F0F731127E02E8C8DB9
:10030000E8120CC00FB607FCFACFE889F9898081A2
:1003100085FFF5CFCE010E944401F1CF8B8DFE0108
:10032000E80FF11DE35AFF4FF0820B8FEA89FB893A
:100330008081806207C0EE89FF896083E889F9893E
:1003400080818064808381E090E0DF91CF911F9174
:100350000F91FF90EF900895CF93DF93EC01888D7C
:100360008823C9F0EA89FB89808185FD05C0A889B9
:10037000B9898C9186FD0FC00FB607FCF5CF80813F
:1003800085FFF2CFA889B9898C9185FFEDCFCE0189
:100390000E944401E7CFDF91CF91089580E090E083
:1003A000892B29F00E943A0181110C9400000895D4
:1003B00090E0FC01E859FF4F3491FC01EC55FF4FF0
:1003C0002491FC01E057FF4FE491EE2309F43BC078
:1003D000332339F1333091F038F43130A9F0323031
:1003E00001F584B58F7D12C0373091F03830A1F01F
:1003F0003430B9F4809180008F7D03C080918000FB
:100400008F77809380000DC084B58F7784BD09C03D
:100410008091B0008F7703C08091B0008F7D809372
:10042000B000F0E0EE0FFF1FE458FF4FA591B4912C
:100430008FB7F894EC91611103C020952E2301C071
:100440002E2B2C938FBF08953FB7F89480917101A4
:1004500090917201A0917301B091740126B5A89B8F
:1004600005C02F3F19F00196A11DB11D3FBFBA2F46
:10047000A92F982F8827820F911DA11DB11DBC01A6
:10048000CD0142E0660F771F881F991F4A95D1F76B
:100490000895CF92DF92EF92FF920E9424026B01A7
:1004A0007C01DD24EE24FF240E942402DC01CB0128
:1004B0008C199D09AE09BF09883E9340A105B1057D
:1004C00098F3FF90EF90DF90CF9008958F929F92D6
:1004D000AF92BF92CF92DF92EF92FF926B017C01BD
:1004E0000E9424024B015C01C114D104E104F10417
:1004F000F1F00E942402DC01CB0188199909AA09B4
:10050000BB09883E9340A105B10570F321E0C21AF2
:10051000D108E108F10888EE880E83E0981EA11C3E
:10052000B11CC114D104E104F10419F7DDCFFF902F
:10053000EF90DF90CF90BF90AF909F908F900895F5
:10054000FF920F931F93CF93DF9300D0CDB7DEB709
:10055000182FF62E6AE070E080E090E02A8349834D
:100560000E946602612F8CE00E94D8016F2D82E00C
:100570000E94D8014981642F83E00E94D8012A811A
:10058000622F84E00E94D801602F85E00E94D8018C
:1005900060E08BE00E94D8010E94490261E08BE09C
:1005A0000E94D8010E94490260E08BE00E94D801BD
:1005B0000F900F90DF91CF911F910F91FF900C94AE
:1005C00049022FB7F89460916D0170916E0180918E
:1005D0006F01909170012FBF08950E943909611534
:1005E000710579F0FB0101900020E9F73197AF0127
:1005F000461B570BDC01ED91FC910280F381E02D4D
:10060000099480E090E008954F925F926F927F92FC
:10061000EF92FF920F931F93CF93DF93CDB7DEB787
:10062000A1970FB6F894DEBF0FBECDBF7C01FA01D3
:10063000CB0119A2223008F42AE08E010F5D1F4F72
:10064000422E512C612C712CBF01A30192010E94FA
:10065000E306F901CA01015011096A3014F4605D22
:1006600001C0695CD8016C93232B242B252B61F7E7
:10067000B801C7010E94EF02A1960FB6F894DEBF41
:100680000FBECDBFDF91CF911F910F91FF90EF90E3
:100690007F906F905F904F9008950F931F93CF932B
:1006A000DF93EC010E94EF028C0167E271E0CE0162
:1006B0000E94EF02800F911FDF91CF911F910F9148
:1006C00008951F920F920FB60F9211242F933F930C
:1006D0004F935F936F937F938F939F93AF93BF934A
:1006E000EF93FF938DE791E00E944401FF91EF911A
:1006F000BF91AF919F918F917F916F915F914F913A
:100700003F912F910F900FBE0F901F9018951F9241
:100710000F920FB60F9211242F938F939F93EF9305
:10072000FF93E0918D01F0918E018081E091930122
:10073000F091940182FD12C09081809196018F5FAB
:100740008F7320919701821751F0E0919601F0E0AC
:10075000E358FE4F958F8093960101C08081FF91F1
:10076000EF919F918F912F910F900FBE0F901F903F
:1007700018951F920F920FB60F9211242F933F934B
:100780008F939F93AF93BF9380916D0190916E0172
:10079000A0916F01B091700130916C0123E0230FA3
:1007A0002D3720F40196A11DB11D05C026E8230FA9
:1007B0000296A11DB11D20936C0180936D01909351
:1007C0006E01A0936F01B0937001809171019091BF
:1007D0007201A0917301B09174010196A11DB11D28
:1007E0008093710190937201A0937301B09374018F
:1007F000BF91AF919F918F913F912F910F900FBE1D
:100800000F901F901895EDE7F1E01382128288EEA9
:1008100093E0A0E0B0E084839583A683B7838AE069
:1008200091E09183808385EC90E09587848784ECC8
:1008300090E09787868780EC90E0918B808B81ECAD
:1008400090E0938B828B82EC90E0958B848B86EC8E
:1008500090E0978B868B118E128E138E148EEAE1A8
:10086000F2E016821782108611861286138614868D
:10087000158616861786108A118A128A138A148A98
:10088000158A0895CF93DF93CDB7DEB760970FB683
:10089000F894DEBF0FBECDBF789484B5826084BD6E
:1008A00084B5816084BD85B5826085BD85B5816074
:1008B00085BD80916E00816080936E0010928100F2
:1008C00080918100826080938100809181008160AD
:1008D000809381008091800081608093800080916E
:1008E000B10084608093B1008091B00081608093FA
:1008F000B00080917A00846080937A0080917A00C1
:10090000826080937A0080917A00816080937A007F
:1009100080917A00806880937A001092C1001092D2
:100920005E0210925F0210926002109261021092B9
:100930001C0210921D0210921E0210921F020E94B1
:10094000E1024B015C012B013C0188EB480E8BE07E
:10095000581E611C711C0E94E102681579058A0508
:100960009B0528F04616570668067906A0F78DE71E
:1009700091E090935D0280935C020E9487000E9448
:10098000E10260931C0270931D0280931E029093FB
:100990001F0268E171E080915C0290915D020E940B
:1009A000EF020E94E1024B015C012B013C01EAE0F5
:1009B0004E0E511C611C711C0E94E10268157905E4
:1009C0008A059B0528F04616570668067906A0F7A3
:1009D00081E0809330028CE00E94AF008BE00E94A7
:1009E000AF0085E00E94AF0084E00E94AF0083E08A
:1009F0000E94AF0082E00E94AF000E94E102672BDC
:100A0000682B692B41F40E94E10262307105810577
:100A1000910508F415C10E94E10260937901709379
:100A20007A0180937B0190937C0180907501909076
:100A30007601A0907701B0907801681579058A0554
:100A40009B0540F460937501709376018093770164
:100A500090937801009175011091760120917701B2
:100A6000309178014B015C01801A910AA20AB30A05
:100A7000950184010A3F11052105310508F4E0C004
:100A8000609375017093760180937701909378015C
:100A900084EF91E0A0E0B0E08093280290932902D7
:100AA000A0932A02B0932B0210922C0210922D02D6
:100AB00010922E0210922F0280912002909121021A
:100AC000A0912202B09123028093240290932502E8
:100AD000A0932602B09327020E94E10260932002B5
:100AE0007093210280932202909323020E94E102DC
:100AF00060931C0270931D0280931E0290931F024C
:100B00000E94E1024B015C016AE271E080915C02AB
:100B100090915D020E94EF022AE041E050E060E027
:100B200070E080915C0290915D020E94040361E399
:100B300071E080915C0290915D020E94EF022AE0D8
:100B4000B501A40180915C0290915D020E940403B2
:100B500063E371E080915C0290915D020E94EF027C
:100B60008091200290912102A0912202B091230253
:100B7000B501A401481B590B6A0B7B0B2AE080913D
:100B80005C0290915D020E94040363E371E0809136
:100B90005C0290915D020E94EF0240912002509110
:100BA000210260912202709123028091240290918F
:100BB0002502A0912602B0912702481B590B6A0B0F
:100BC0007B0B2AE080915C0290915D020E940403FD
:100BD00065E371E080915C0290915D020E94EF02FA
:100BE0000E94E102AB01BC012AE080915C0290917D
:100BF0005D020E94040367E371E080915C029091C2
:100C00005D020E944D030E94E1024B015C012B0139
:100C10003C0185E0480E511C611C711C0E94E102E0
:100C2000681579058A059B0508F0C6C00E94E10297
:100C300060932002709321028093220290932302FA
:100C40000E9487006EE371E08DE791E00E944D0302
:100C500060E08BE00E94D8018BE39DE00197F1F703
:100C600000E010E021E030E040E050E060E070E0C3
:100C700080E090E00E94A00221E030E040E050E0FF
:100C800060E070E080E090E00E94A00220E030E0B0
:100C900040E050E060E070E080E090E00E94A00260
:100CA00020E030E040E050E060E070E080E090E084
:100CB0000E94A00221E030E041E050E061E070E0FD
:100CC00080E090E00E94A00220E030E040E050E0B0
:100CD00060E070E080E090E00E94A00221E030E05F
:100CE00041E050E060E070E080E090E00E94A0020F
:100CF00066E070E080E090E00E946F087C01009761
:100D000051F0FC01108263E471E00E94470985E024
:100D1000882E912C02C0812C912CA12CB12C3E014B
:100D2000F1E16F0E711CA814B904A4F5A814B9045C
:100D300040F4E114F10429F0F701EA0DFB1D808174
:100D400001C080E0FE01319680FBCC24C0F8D12C9C
:100D5000C192D1928595E615F705B1F709851A85F7
:100D60002B853C854D855E856F85788981E090E097
:100D70000E94A00209811A812B813C814D815E81F4
:100D80006F81788581E090E00E94A0028FEFA81A21
:100D9000B80AC9CFC7010E94D70769E471E08DE79F
:100DA00091E00E944D0368EE73E080E090E00E94C5
:100DB00066020E94CE01F7CF4616570668067906EE
:100DC00008F02CCF33CFA1E21A2EAA1BBB1BFD01CA
:100DD0000DC0AA1FBB1FEE1FFF1FA217B307E4071A
:100DE000F50720F0A21BB30BE40BF50B661F771F72
:100DF000881F991F1A9469F7609570958095909552
:100E00009B01AC01BD01CF0108952F923F924F92FB
:100E10005F926F927F928F929F92AF92BF92CF928A
:100E2000DF92EF92FF920F931F93CF93DF93CDB793
:100E3000DEB7CA1BDB0B0FB6F894DEBF0FBECDBF0B
:100E400009942A88398848885F846E847D848C84DC
:100E50009B84AA84B984C884DF80EE80FD800C81E5
:100E60001B81AA81B981CE0FD11D0FB6F894DEBFC8
:100E70000FBECDBFED010895EE0FFF1F0590F49159
:100E8000E02D0994CF93DF938230910510F482E036
:100E900090E0E0916402F091650220E030E0C0E073
:100EA000D0E0309711F14081518148175907C0F0C7
:100EB0004817590761F482819381209719F09B8329
:100EC0008A832BC0909365028093640226C021150B
:100ED000310519F04217530718F49A01BE01DF01DA
:100EE000EF010280F381E02DDCCF2115310509F1FE
:100EF000281B390B2430310590F412968D919C916A
:100F000013976115710521F0FB019383828304C05F
:100F10009093650280936402FD01329644C0FD0106
:100F2000E20FF31F81939193225031092D933C934B
:100F30003AC02091620230916302232B41F4209148
:100F400002013091030130936302209362022091E9
:100F50000001309101012115310541F42DB73EB753
:100F60004091040150910501241B350BE091620270
:100F7000F0916302E217F307A0F42E1B3F0B281732
:100F8000390778F0AC014E5F5F4F2417350748F002
:100F90004E0F5F1F509363024093620281939193BF
:100FA00002C0E0E0F0E0CF01DF91CF9108950F9310
:100FB0001F93CF93DF93009709F48CC0FC01329705
:100FC00013821282009164021091650201151105CD
:100FD00081F420813181820F931F20916202309130
:100FE00063022817390779F5F0936302E0936202F0
:100FF00071C0D80140E050E0AE17BF0750F4129620
:101000002D913C911397AD012115310509F1D901BD
:10101000F3CF9D01DA013383228360817181860FD2
:10102000971F8217930769F4EC0128813981260FF5
:10103000371F2E5F3F4F318320838A819B819383AB
:101040008283452B29F4F0936502E093640242C049
:101050001396FC93EE931297ED01499159919E01DD
:10106000240F351FE217F30771F480819181840FFB
:10107000951F029611969C938E938281938113966D
:101080009C938E931297E0E0F0E0D80112968D9138
:101090009C911397009719F0F8018C01F6CF8D9170
:1010A0009C9198012E5F3F4F820F931F2091620207
:1010B000309163022817390769F4309729F41092A8
:1010C00065021092640202C01382128210936302BE
:1010D00000936202DF91CF911F910F910895A0E0DC
:1010E000B0E0E5E7F8E00C940907EC01009721F483
:1010F000CB010E944207B8C0FC01E60FF71F9C011C
:1011000022503109E217F30708F4ACC0D9010D9160
:101110001C91119706171707B0F00530110508F458
:101120009FC0C80104978617970708F499C002501A
:101130001109061B170B019311936D937C93CF013B
:101140000E94D7078DC05B01A01AB10A4C01800E26
:10115000911EA0916402B091650240E050E0E12C44
:10116000F12C109709F44AC0A815B905D1F56D9076
:101170007C901197630182E0C80ED11CCA14DB0475
:1011800080F1A3014A195B096A0182E0C80ED11CF3
:101190001296BC9012971396AC91B5E0CB16D10481
:1011A00040F0B282A38351834083D9016D937C9335
:1011B0000AC00E5F1F4FC301800F911FF901918379
:1011C0008083EB2DFA2FE114F10431F0D70113964F
:1011D000FC93EE93129744C0F0936502E09364028F
:1011E0003FC08D919C9111974817590708F4AC01A5
:1011F0007D0112960D90BC91A02DB3CF809162021B
:101200009091630288159905E1F446175707C8F4D1
:101210008091000190910101009741F48DB79EB734
:101220004091040150910501841B950BE817F907C3
:10123000C8F4F0936302E0936202F9017183608362
:101240000FC0CB010E9442077C01009759F0A80112
:10125000BE010E943E09CE010E94D707C70104C00B
:10126000CE0102C080E090E0CDB7DEB7EEE00C9496
:10127000250781E090E0F8940C944E09FB01DC0115
:1012800002C001900D9241505040D8F70895FB01E3
:10129000DC0101900D920020E1F70895F894FFCF52
:1012A000000066028000000000006501CE00FD0025
:1012B000AC012E010C012001564D4450565F317C8B
:1012C000315F564D4450560D0A00564D4450455F0F
:1012D000003A323A007C005F564D44504500546558
:1012E00073740048454C4C4F00417474656D7074C4
:1012F000696E6720746F2073656E64206D6573730B
:0C1300006167653A2048454C4C4F0A00DC
:00000001FF
