:100000000C945D000C9485000C9485000C94850084
:100010000C9485000C9485000C9485000C9485004C
:100020000C9485000C9485000C9485000C9485003C
:100030000C9485000C9485000C9485000C9485002C
:100040000C94E0030C9485000C94AE030C9488038C
:100050000C9485000C9485000C9485000C9485000C
:100060000C9485000C94850000000008000201003B
:100070000003040700000000000000000000000072
:10008000250028002B0000000000240027002A0083
:10009000040404040404040402020202020203032E
:1000A0000303030301020408102040800102040836
:1000B00010200102040810202A0411241FBECFEFD3
:1000C000D8E0DEBFCDBF22E0A2E9B1E001C01D92C1
:1000D000AC38B207E1F711E0A0E0B1E0E6E8F2E108
:1000E00002C005900D92A239B107D9F710E0CDE515
:1000F000D0E004C02197FE010E942F07CC35D10724
:10010000C9F70E9469040C9441090C940000E3EAC9
:10011000F1E0A089B18982E08C93A485B5851C9219
:10012000A685B7858FEC8C93108EA489B58986E05F
:100130008C93A289B3898C9180618C93A289B389B5
:100140008C9188608C93A289B3898C9180688C9300
:100150000288F389E02D80818F7D8083089590E06F
:10016000FC01EC55FF4F2491FC01E057FF4F8491B7
:10017000882399F090E0880F991FFC01EA57FF4F00
:10018000A591B491FC01E458FF4F859194918FB7EC
:10019000F894EC91E22BEC938FBF0895CF92DF920D
:1001A000EF92FF920F931F93CF93DF936C017A012D
:1001B0008B01C0E0D0E0CE15DF0589F0D8016D914C
:1001C0008D01D601ED91FC910190F081E02DC601E9
:1001D0000995892B11F47E0102C02196ECCFC7014D
:1001E000DF91CF911F910F91FF90EF90DF90CF9013
:1001F0000895089580E090E00895FC01538D448DAA
:10020000252F30E0842F90E0821B930B541710F0C1
:10021000CF96089501970895FC01918D828D9817CE
:1002200061F0828DDF01A80FB11D5D968C91928DDA
:100230009F5F9F73928F90E008958FEF9FEF0895D7
:10024000FC01918D828D981731F0828DE80FF11DA0
:10025000858D90E008958FEF9FEF0895FC01918DBB
:10026000228D892F90E0805C9F4F821B91098F73B4
:100270009927089583EA91E00E942E0121E0892BBD
:1002800009F420E0822F0895FC01848DDF01A80F7E
:10029000B11DA35ABF4F2C91848D90E001968F73AE
:1002A0009927848FA689B7892C93A089B1898C91CD
:1002B00080648C93938D848D981306C00288F38993
:1002C000E02D80818F7D80830895EF92FF920F93C0
:1002D0001F93CF93DF93EC0181E0888F9B8D8C8DF2
:1002E000981305C0E889F989808185FD24C0F62E20
:1002F0000B8D10E00F5F1F4F0F731127E02E8C8DB9
:10030000E8120CC00FB607FCFACFE889F9898081A2
:1003100085FFF5CFCE010E944401F1CF8B8DFE0108
:10032000E80FF11DE35AFF4FF0820B8FEA89FB893A
:100330008081806207C0EE89FF896083E889F9893E
:1003400080818064808381E090E0DF91CF911F9174
:100350000F91FF90EF900895CF93DF93EC01888D7C
:100360008823C9F0EA89FB89808185FD05C0A889B9
:10037000B9898C9186FD0FC00FB607FCF5CF80813F
:1003800085FFF2CFA889B9898C9185FFEDCFCE0189
:100390000E944401E7CFDF91CF91089580E090E083
:1003A000892B29F00E943A0181110C9400000895D4
:1003B00090E0FC01E859FF4F3491FC01EC55FF4FF0
:1003C0002491FC01E057FF4FE491EE2309F43BC078
:1003D000332339F1333091F038F43130A9F0323031
:1003E00001F584B58F7D12C0373091F03830A1F01F
:1003F0003430B9F4809180008F7D03C080918000FB
:100400008F77809380000DC084B58F7784BD09C03D
:100410008091B0008F7703C08091B0008F7D809372
:10042000B000F0E0EE0FFF1FE458FF4FA591B4912C
:100430008FB7F894EC91611103C020952E2301C071
:100440002E2B2C938FBF08953FB7F894809197017E
:1004500090919801A0919901B0919A0126B5A89B1D
:1004600005C02F3F19F00196A11DB11D3FBFBA2F46
:10047000A92F982F8827820F911DA11DB11DBC01A6
:10048000CD0142E0660F771F881F991F4A95D1F76B
:100490000895CF92DF92EF92FF920E9424026B01A7
:1004A0007C01DD24EE24FF240E942402DC01CB0128
:1004B0008C199D09AE09BF09883E9340A105B1057D
:1004C00098F3FF90EF90DF90CF9008958F929F92D6
:1004D000AF92BF92CF92DF92EF92FF926B017C01BD
:1004E0000E9424024B015C01C114D104E104F10417
:1004F000F1F00E942402DC01CB0188199909AA09B4
:10050000BB09883E9340A105B10570F321E0C21AF2
:10051000D108E108F10888EE880E83E0981EA11C3E
:10052000B11CC114D104E104F10419F7DDCFFF902F
:10053000EF90DF90CF90BF90AF909F908F900895F5
:10054000FF920F931F93CF93DF9300D0CDB7DEB709
:10055000182FF62E6AE070E080E090E02A8349834D
:100560000E946602612F8CE00E94D8016F2D82E00C
:100570000E94D8014981642F83E00E94D8012A811A
:10058000622F84E00E94D801602F85E00E94D8018C
:1005900060E08BE00E94D8010E94490261E08BE09C
:1005A0000E94D8010E94490260E08BE00E94D801BD
:1005B0000F900F90DF91CF911F910F91FF900C94AE
:1005C00049022FB7F8946091930170919401809142
:1005D0009501909196012FBF08958F929F92AF92AF
:1005E000BF92CF92DF92EF92FF926B017C010E944B
:1005F000E1024B015C01C60ED71EE81EF91E0E94E7
:10060000E102681579058A059B0528F0C616D7060C
:10061000E806F906A0F7FF90EF90DF90CF90BF902B
:10062000AF909F908F9008950E942C0961157105DD
:1006300079F0FB0101900020E9F73197AF01461BEB
:10064000570BDC01ED91FC910280F381E02D0994C0
:1006500080E090E008954F925F926F927F92EF92C8
:10066000FF920F931F93CF93DF93CDB7DEB7A19780
:100670000FB6F894DEBF0FBECDBF7C01FA01CB01EF
:1006800019A2223008F42AE08E010F5D1F4F422E7E
:10069000512C612C712CBF01A30192010E94D6063E
:1006A000F901CA01015011096A3014F4605D01C0FA
:1006B000695CD8016C93232B242B252B61F7B8019F
:1006C000C7010E941603A1960FB6F894DEBF0FBEB5
:1006D000CDBFDF91CF911F910F91FF90EF907F9051
:1006E0006F905F904F9008950F931F93CF93DF9378
:1006F000EC010E9416038C0167E271E0CE010E94BA
:100700001603800F911FDF91CF911F910F910895D4
:100710001F920F920FB60F9211242F933F934F9376
:100720005F936F937F938F939F93AF93BF93EF9359
:10073000FF9383EA91E00E944401FF91EF91BF9102
:10074000AF919F918F917F916F915F914F913F9169
:100750002F910F900FBE0F901F9018951F920F9220
:100760000FB60F9211242F938F939F93EF93FF93C4
:10077000E091B301F091B4018081E091B901F09171
:10078000BA0182FD12C090818091BC018F5F8F738E
:100790002091BD01821751F0E091BC01F0E0ED55D0
:1007A000FE4F958F8093BC0101C08081FF91EF9136
:1007B0009F918F912F910F900FBE0F901F901895C2
:1007C0001F920F920FB60F9211242F933F938F9386
:1007D0009F93AF93BF938091930190919401A091C7
:1007E0009501B09196013091920123E0230F2D37AE
:1007F00020F40196A11DB11D05C026E8230F029625
:10080000A11DB11D209392018093930190939401B7
:10081000A0939501B09396018091970190919801D2
:10082000A0919901B0919A010196A11DB11D8093EB
:10083000970190939801A0939901B0939A01BF9169
:10084000AF919F918F913F912F910F900FBE0F907D
:100850001F901895E3EAF1E01382128288EE93E08C
:10086000A0E0B0E084839583A683B7838AE091E01B
:100870009183808385EC90E09587848784EC90E079
:100880009787868780EC90E0918B808B81EC90E05D
:10089000938B828B82EC90E0958B848B86EC90E03E
:1008A000978B868B118E128E138E148EE0E4F2E0FD
:1008B0001682178210861186128613861486158674
:1008C00016861786108A118A128A138A148A158A44
:1008D0000895CF93DF93CDB7DEB760970FB6F89446
:1008E000DEBF0FBECDBF789484B5826084BD84B571
:1008F000816084BD85B5826085BD85B5816085BD1B
:1009000080916E00816080936E00109281008091D2
:10091000810082608093810080918100816080935A
:100920008100809180008160809380008091B1007F
:1009300084608093B1008091B00081608093B000AA
:1009400080917A00846080937A0080917A0082603E
:1009500080937A0080917A00816080937A00809100
:100960007A00806880937A001092C100109284020D
:100970001092850210928602109287021092420213
:1009800010924302109244021092450268EB7BE001
:1009900080E090E00E94ED0283EA91E09093830270
:1009A000809382020E9487000E94E10260934202CB
:1009B00070934302809344029093450268E171E092
:1009C00080918202909183020E9416036AE070E097
:1009D00080E090E00E94ED0281E0809356028CE07E
:1009E0000E94AF008BE00E94AF0085E00E94AF0044
:1009F00084E00E94AF0083E00E94AF0082E00E948A
:100A0000AF000E9487006AE271E083EA91E00E94F1
:100A1000740360E08BE00E94D8018BE39DE00197B6
:100A2000F1F700E010E021E030E040E050E060E06D
:100A300070E080E090E00E94A00221E030E040E021
:100A400050E060E070E080E090E00E94A00220E0D2
:100A500030E040E050E060E070E080E090E00E9434
:100A6000A00220E030E040E050E060E070E080E094
:100A700090E00E94A00221E030E041E050E061E01F
:100A800070E080E090E00E94A00220E030E040E0D2
:100A900050E060E070E080E090E00E94A00221E081
:100AA00030E041E050E060E070E080E090E00E94E3
:100AB000A00266E070E080E090E00E9462087C01A5
:100AC000009751F0FC01108264E571E00E943A0940
:100AD00095E0A92EB12C02C0A12CB12CC12CD12C97
:100AE0003E01F1E16F0E711CCA14DB04A4F5CA14B7
:100AF000DB0440F4E114F10429F0F701EC0DFD1DD5
:100B0000808101C080E0FE01319680FB882480F85E
:100B1000912C819291928595E615F705B1F709859B
:100B20001A852B853C854D855E856F85788981E0AA
:100B300090E00E94A00209811A812B813C814D81A5
:100B40005E816F81788581E090E00E94A0022FEFA6
:100B5000C21AD20AC9CFC7010E94CA076AE571E06A
:100B600083EA91E00E94740384EF882E9924939481
:100B7000A12CB12C0E94E102672B682B692B41F458
:100B80000E94E102623071058105910508F405C1FA
:100B90000E94E10260939F017093A0018093A101E4
:100BA0009093A201C0909B01D0909C01E0909D0188
:100BB000F0909E016C157D058E059F0540F46093B5
:100BC0009B0170939C0180939D0190939E01C09026
:100BD0009B01D0909C01E0909D01F0909E019B01B3
:100BE000AC012C193D094E095F0969017A013AEF00
:100BF000C316D104E104F10408F4CFC060939B0153
:100C000070939C0180939D0190939E0180924E026F
:100C100090924F02A0925002B09251021092520252
:100C20001092530210925402109255028091460283
:100C300090914702A0914802B091490280934A02E4
:100C400090934B02A0934C02B0934D020E94E1029C
:100C50006093460270934702809348029093490242
:100C60000E94E10260934202709343028093440227
:100C7000909345020E94E1026B017C016DE771E0F7
:100C800080918202909183020E9416032AE041E043
:100C900050E060E070E080918202909183020E94B7
:100CA0002B0364E871E080918202909183020E949C
:100CB00016032AE0B701A601809182029091830277
:100CC0000E942B0366E871E080918202909183027A
:100CD0000E9416038091460290914702A09148021B
:100CE000B0914902B701A601481B590B6A0B7B0B57
:100CF0002AE080918202909183020E942B0366E891
:100D000071E080918202909183020E9416034091CB
:100D100046025091470260914802709149028091C9
:100D20004A0290914B02A0914C02B0914D02481B97
:100D3000590B6A0B7B0B2AE080918202909183020F
:100D40000E942B0368E871E08091820290918302F7
:100D50000E9416030E94E102AB01BC012AE08091CF
:100D60008202909183020E942B036AE871E08091D5
:100D70008202909183020E94740365E070E080E03B
:100D800090E00E94ED020E94E1026093460270939F
:100D90004702809348029093490268EE73E080E036
:100DA00090E00E9466020E94CE01E4CEA1E21A2EDB
:100DB000AA1BBB1BFD010DC0AA1FBB1FEE1FFF1FFF
:100DC000A217B307E407F50720F0A21BB30BE40B4F
:100DD000F50B661F771F881F991F1A9469F7609596
:100DE0007095809590959B01AC01BD01CF01089550
:100DF0002F923F924F925F926F927F928F929F922B
:100E0000AF92BF92CF92DF92EF92FF920F931F9318
:100E1000CF93DF93CDB7DEB7CA1BDB0B0FB6F894C9
:100E2000DEBF0FBECDBF09942A88398848885F8409
:100E30006E847D848C849B84AA84B984C884DF807A
:100E4000EE80FD800C811B81AA81B981CE0FD11D5E
:100E50000FB6F894DEBF0FBECDBFED010895EE0FC3
:100E6000FF1F0590F491E02D0994CF93DF9382301A
:100E7000910510F482E090E0E0918A02F0918B02FB
:100E800020E030E0C0E0D0E0309711F140815181A6
:100E900048175907C0F04817590761F482819381B8
:100EA000209719F09B838A832BC090938B028093A9
:100EB0008A0226C02115310519F04217530718F48C
:100EC0009A01BE01DF01EF010280F381E02DDCCF4A
:100ED0002115310509F1281B390B2430310590F417
:100EE00012968D919C9113976115710521F0FB016C
:100EF0009383828304C090938B0280938A02FD01C6
:100F0000329644C0FD01E20FF31F8193919322506A
:100F100031092D933C933AC0209188023091890287
:100F2000232B41F420910201309103013093890277
:100F30002093880220910001309101012115310593
:100F400041F42DB73EB74091040150910501241B97
:100F5000350BE0918802F0918902E217F307A0F4C3
:100F60002E1B3F0B2817390778F0AC014E5F5F4FFF
:100F70002417350748F04E0F5F1F509389024093A6
:100F800088028193919302C0E0E0F0E0CF01DF910D
:100F9000CF9108950F931F93CF93DF93009709F498
:100FA0008CC0FC0132971382128200918A02109148
:100FB0008B020115110581F420813181820F931F6D
:100FC00020918802309189022817390779F5F0932A
:100FD0008902E093880271C0D80140E050E0AE176A
:100FE000BF0750F412962D913C911397AD01211536
:100FF000310509F1D901F3CF9D01DA013383228351
:1010000060817181860F971F8217930769F4EC0145
:1010100028813981260F371F2E5F3F4F3183208370
:101020008A819B8193838283452B29F4F0938B02E1
:10103000E0938A0242C01396FC93EE931297ED015F
:10104000499159919E01240F351FE217F30771F45E
:1010500080819181840F951F029611969C938E93A7
:101060008281938113969C938E931297E0E0F0E037
:10107000D80112968D919C911397009719F0F80161
:101080008C01F6CF8D919C9198012E5F3F4F820F7E
:10109000931F20918802309189022817390769F43B
:1010A000309729F410928B0210928A0202C01382A8
:1010B00012821093890200938802DF91CF911F91D1
:1010C0000F910895A0E0B0E0E8E6F8E00C94FC068B
:1010D000EC01009721F4CB010E943507B8C0FC0158
:1010E000E60FF71F9C0122503109E217F30708F4BD
:1010F000ACC0D9010D911C91119706171707B0F0DC
:101100000530110508F49FC0C8010497861797079A
:1011100008F499C002501109061B170B0193119393
:101120006D937C93CF010E94CA078DC05B01A01A0A
:10113000B10A4C01800E911EA0918A02B0918B02DF
:1011400040E050E0E12CF12C109709F44AC0A815BA
:10115000B905D1F56D907C901197630182E0C80EBE
:10116000D11CCA14DB0480F1A3014A195B096A018E
:1011700082E0C80ED11C1296BC9012971396AC91C7
:10118000B5E0CB16D10440F0B282A38351834083F3
:10119000D9016D937C930AC00E5F1F4FC301800F6E
:1011A000911FF90191838083EB2DFA2FE114F10453
:1011B00031F0D7011396FC93EE93129744C0F0934D
:1011C0008B02E0938A023FC08D919C911197481742
:1011D000590708F4AC017D0112960D90BC91A02D29
:1011E000B3CF809188029091890288159905E1F426
:1011F00046175707C8F480910001909101010097AC
:1012000041F48DB79EB74091040150910501841BB4
:10121000950BE817F907C8F4F0938902E093880268
:10122000F901718360830FC0CB010E9435077C01F7
:10123000009759F0A801BE010E943109CE010E9419
:10124000CA07C70104C0CE0102C080E090E0CDB75C
:10125000DEB7EEE00C94180781E090E0F8940C946F
:101260004109FB01DC0102C001900D924150504048
:10127000D8F70895FB01DC0101900D920020E1F701
:061280000895F894FFCF71
:1012860000008C028000000000006501CE00FD0019
:10129600AC012E010C012001564D4450565F317CA5
:1012A600315F564D4450560D0A00496E69746961A6
:1012B6006C697A696E67204C434420646973706C6C
:1012C600617920776974686F7574206C69627261E0
:1012D60072792E0048454C4C4F00417474656D7010
:1012E60074696E6720746F2073656E64206D657314
:1012F600736167653A2048454C4C4F0A00564D4489
:1013060050455F003A323A007C005F564D445045E6
:021316000000D5
:107E0000112484B714BE81FFF0D085E080938100F7
:107E100082E08093C00088E18093C10086E0809377
:107E2000C20080E18093C4008EE0C9D0259A86E02C
:107E300020E33CEF91E0309385002093840096BBD3
:107E4000B09BFECF1D9AA8958150A9F7CC24DD24C4
:107E500088248394B5E0AB2EA1E19A2EF3E0BF2EE7
:107E6000A2D0813461F49FD0082FAFD0023811F036
:107E7000013811F484E001C083E08DD089C08234E0
:107E800011F484E103C0853419F485E0A6D080C0E4
:107E9000853579F488D0E82EFF2485D0082F10E0AE
:107EA000102F00270E291F29000F111F8ED06801E7
:107EB0006FC0863521F484E090D080E0DECF843638
:107EC00009F040C070D06FD0082F6DD080E0C81688
:107ED00080E7D80618F4F601B7BEE895C0E0D1E017
:107EE00062D089930C17E1F7F0E0CF16F0E7DF06D8
:107EF00018F0F601B7BEE89568D007B600FCFDCFD4
:107F0000A601A0E0B1E02C9130E011968C91119780
:107F100090E0982F8827822B932B1296FA010C0160
:107F200087BEE89511244E5F5F4FF1E0A038BF0790
:107F300051F7F601A7BEE89507B600FCFDCF97BE46
:107F4000E89526C08437B1F42ED02DD0F82E2BD052
:107F50003CD0F601EF2C8F010F5F1F4F84911BD097
:107F6000EA94F801C1F70894C11CD11CFA94CF0C13
:107F7000D11C0EC0853739F428D08EE10CD085E9AC
:107F80000AD08FE07ACF813511F488E018D01DD067
:107F900080E101D065CF982F8091C00085FFFCCF94
:107FA0009093C60008958091C00087FFFCCF809118
:107FB000C00084FD01C0A8958091C6000895E0E648
:107FC000F0E098E1908380830895EDDF803219F02E
:107FD00088E0F5DFFFCF84E1DECF1F93182FE3DFCA
:107FE0001150E9F7F2DF1F91089580E0E8DFEE27F6
:047FF000FF270994CA
:027FFE00040479
:0400000300007E007B
:00000001FF